{"contracts/TokenFarm.sol":{"TokenFarm":{"abi":[{"inputs":[{"internalType":"contract DAppToken","name":"_dappToken","type":"address"},{"internalType":"contract LPToken","name":"_lpToken","type":"address"},{"internalType":"uint256","name":"_minReward","type":"uint256"},{"internalType":"uint256","name":"_maxReward","type":"uint256"},{"internalType":"uint256","name":"_feeAmount","type":"uint256"}],"stateMutability":"nonpayable","type":"constructor"},{"anonymous":false,"inputs":[{"indexed":false,"internalType":"address","name":"sender","type":"address"},{"indexed":false,"internalType":"uint256","name":"amount","type":"uint256"}],"name":"Deposit","type":"event"},{"anonymous":false,"inputs":[{"indexed":false,"internalType":"uint256","name":"rewardsAmount","type":"uint256"},{"indexed":false,"internalType":"address","name":"user","type":"address"}],"name":"RewardsClaimed","type":"event"},{"anonymous":false,"inputs":[{"indexed":false,"internalType":"uint256","name":"numOfUsersDistributed","type":"uint256"},{"indexed":false,"internalType":"string","name":"message","type":"string"}],"name":"RewardsDistributed","type":"event"},{"anonymous":false,"inputs":[{"indexed":false,"internalType":"address","name":"sender","type":"address"},{"indexed":false,"internalType":"uint256","name":"amount","type":"uint256"}],"name":"Withdraw","type":"event"},{"inputs":[],"name":"REWARD_PER_BLOCK","outputs":[{"internalType":"uint256","name":"","type":"uint256"}],"stateMutability":"view","type":"function"},{"inputs":[{"internalType":"uint256","name":"_amount","type":"uint256"}],"name":"claimFee","outputs":[],"stateMutability":"nonpayable","type":"function"},{"inputs":[],"name":"claimRewards","outputs":[],"stateMutability":"nonpayable","type":"function"},{"inputs":[],"name":"dappToken","outputs":[{"internalType":"contract DAppToken","name":"","type":"address"}],"stateMutability":"view","type":"function"},{"inputs":[{"internalType":"uint256","name":"_amount","type":"uint256"}],"name":"deposit","outputs":[],"stateMutability":"nonpayable","type":"function"},{"inputs":[],"name":"distributeRewardsAll","outputs":[],"stateMutability":"nonpayable","type":"function"},{"inputs":[],"name":"feeVar","outputs":[{"internalType":"uint256","name":"","type":"uint256"}],"stateMutability":"view","type":"function"},{"inputs":[],"name":"lpToken","outputs":[{"internalType":"contract LPToken","name":"","type":"address"}],"stateMutability":"view","type":"function"},{"inputs":[],"name":"maxReward","outputs":[{"internalType":"uint256","name":"","type":"uint256"}],"stateMutability":"view","type":"function"},{"inputs":[],"name":"minReward","outputs":[{"internalType":"uint256","name":"","type":"uint256"}],"stateMutability":"view","type":"function"},{"inputs":[],"name":"name","outputs":[{"internalType":"string","name":"","type":"string"}],"stateMutability":"view","type":"function"},{"inputs":[],"name":"owner","outputs":[{"internalType":"address payable","name":"","type":"address"}],"stateMutability":"view","type":"function"},{"inputs":[{"internalType":"uint256","name":"newReward","type":"uint256"}],"name":"setReward","outputs":[],"stateMutability":"nonpayable","type":"function"},{"inputs":[{"internalType":"uint256","name":"","type":"uint256"}],"name":"stakers","outputs":[{"internalType":"address","name":"","type":"address"}],"stateMutability":"view","type":"function"},{"inputs":[],"name":"totalStakingBalance","outputs":[{"internalType":"uint256","name":"","type":"uint256"}],"stateMutability":"view","type":"function"},{"inputs":[{"internalType":"address","name":"","type":"address"}],"name":"user","outputs":[{"internalType":"uint256","name":"stakingBalance","type":"uint256"},{"internalType":"uint256","name":"checkpoints","type":"uint256"},{"internalType":"uint256","name":"pendingRewards","type":"uint256"},{"internalType":"bool","name":"hasStaked","type":"bool"},{"internalType":"bool","name":"isStaking","type":"bool"}],"stateMutability":"view","type":"function"},{"inputs":[],"name":"withdraw","outputs":[],"stateMutability":"nonpayable","type":"function"}],"evm":{"bytecode":{"linkReferences":{},"object":"60c0604052601760809081527f50726f706f7274696f6e616c20546f6b656e204661726d00000000000000000060a0526000906200003e90826200025a565b503480156200004c57600080fd5b50604051620012a8380380620012a88339810160408190526200006f916200033f565b600280546001600160a01b038088166001600160a01b031992831617909255600380549287169282169290921790915560018054909116331790556127108110620001145760405162461bcd60e51b815260206004820152602a60248201527f46656520616d6f756e742063616e6e6f742062652067726561746572207468616044820152696e20746865203130302560b01b60648201526084015b60405180910390fd5b6007819055818310620001805760405162461bcd60e51b815260206004820152602d60248201527f4d696e205265776172642063616e6e6f7420626520677265617465722074686160448201526c371026b0bc102932bbb0b9321760991b60648201526084016200010b565b60058390556006829055600262000198838562000397565b620001a49190620003bf565b60045550620003e29350505050565b634e487b7160e01b600052604160045260246000fd5b600181811c90821680620001de57607f821691505b602082108103620001ff57634e487b7160e01b600052602260045260246000fd5b50919050565b601f82111562000255576000816000526020600020601f850160051c81016020861015620002305750805b601f850160051c820191505b8181101562000251578281556001016200023c565b5050505b505050565b81516001600160401b03811115620002765762000276620001b3565b6200028e81620002878454620001c9565b8462000205565b602080601f831160018114620002c65760008415620002ad5750858301515b600019600386901b1c1916600185901b17855562000251565b600085815260208120601f198616915b82811015620002f757888601518255948401946001909101908401620002d6565b5085821015620003165787850151600019600388901b60f8161c191681555b5050505050600190811b01905550565b6001600160a01b03811681146200033c57600080fd5b50565b600080600080600060a086880312156200035857600080fd5b8551620003658162000326565b6020870151909550620003788162000326565b6040870151606088015160809098015196999198509695945092505050565b80820180821115620003b957634e487b7160e01b600052601160045260246000fd5b92915050565b600082620003dd57634e487b7160e01b600052601260045260246000fd5b500490565b610eb680620003f26000396000f3fe608060405234801561001057600080fd5b506004361061010b5760003560e01c80638da5cb5b116100a2578063ba16d60011610071578063ba16d6001461024d578063db03e22714610256578063e766c8351461025e578063f667526a14610267578063fd5e6dd11461027a57600080fd5b80638da5cb5b146102155780638df4a3a514610228578063975532dc14610231578063b6b55f251461023a57600080fd5b80635eb186f8116100de5780635eb186f8146101535780635fcbd2851461017e57806366a78e6c1461019157806381e7e20e146101a857600080fd5b806306fdde0314610110578063293be4561461012e578063372500ab146101435780633ccfd60b1461014b575b600080fd5b61011861028d565b6040516101259190610cc4565b60405180910390f35b61014161013c366004610d13565b61031b565b005b6101416103d8565b61014161054f565b600254610166906001600160a01b031681565b6040516001600160a01b039091168152602001610125565b600354610166906001600160a01b031681565b61019a60065481565b604051908152602001610125565b6101e96101b6366004610d2c565b600b6020526000908152604090208054600182015460028301546003909301549192909160ff8082169161010090041685565b60408051958652602086019490945292840191909152151560608301521515608082015260a001610125565b600154610166906001600160a01b031681565b61019a60075481565b61019a60045481565b610141610248366004610d13565b610740565b61019a60055481565b61014161094a565b61019a60095481565b610141610275366004610d13565b610a71565b610166610288366004610d13565b610b5f565b6000805461029a90610d5c565b80601f01602080910402602001604051908101604052809291908181526020018280546102c690610d5c565b80156103135780601f106102e857610100808354040283529160200191610313565b820191906000526020600020905b8154815290600101906020018083116102f657829003601f168201915b505050505081565b6001546001600160a01b0316331461034e5760405162461bcd60e51b815260040161034590610d96565b60405180910390fd5b6005548110158061036157506006548111155b6103d35760405162461bcd60e51b815260206004820152603d60248201527f536f7272792c20796f752063616e7420676f206265796f6e6420746865206d6960448201527f6e20616e64206d61782065737461626c69736865642076616c7565732e0000006064820152608401610345565b600455565b336000908152600b6020526040902060020154806104565760405162461bcd60e51b815260206004820152603560248201527f50656e64696e6720416d6f756e74206973207a65726f206f72206c657373657260448201527416103bb29031b0b73737ba1031b7b73a34b73ab29760591b6064820152608401610345565b336000908152600b602052604081206002018190556007546127109061047c9084610de3565b6104869190610e00565b905060006104948284610e22565b905081600860008282546104a89190610e35565b90915550506002546040516340c10f1960e01b8152336004820152602481018390526001600160a01b03909116906340c10f1990604401600060405180830381600087803b1580156104f957600080fd5b505af115801561050d573d6000803e3d6000fd5b5050604080518681523360208201527f3faf1b981f3f8f6d61498a40cd97becbe364c8da8a0f92c1cdec3051deef9f19935001905060405180910390a1505050565b336000908152600b602052604090206003015460ff6101009091041615156001146105bc5760405162461bcd60e51b815260206004820152601760248201527f5468652075736572206973206e6f74207374616b696e670000000000000000006044820152606401610345565b336000908152600b60205260409020548061063f5760405162461bcd60e51b815260206004820152603e60248201527f496d20736f7272792c207468652063757272656e74207374616b696e6720626160448201527f6c616e6365206f662074686973206164647265737320697320656d70747900006064820152608401610345565b61064833610b89565b336000908152600b602052604081208190556009805483929061066c908490610e22565b9091555050336000818152600b6020526040908190206003908101805461ff001916905554905163a9059cbb60e01b81526004810192909252602482018390526001600160a01b03169063a9059cbb906044016020604051808303816000875af11580156106de573d6000803e3d6000fd5b505050506040513d601f19601f820116820180604052508101906107029190610e48565b5060408051338152602081018390527f884edad9ce6fa2440d8a54cc123490eb96d2768479d49ff9c7366125a942436491015b60405180910390a150565b6000811161079b5760405162461bcd60e51b815260206004820152602260248201527f54686520616d6f756e742063616e6e6f74206265206c6573736572207468616e604482015261203160f01b6064820152608401610345565b6003546040516323b872dd60e01b8152336004820152306024820152604481018390526001600160a01b03909116906323b872dd906064016020604051808303816000875af11580156107f2573d6000803e3d6000fd5b505050506040513d601f19601f820116820180604052508101906108169190610e48565b50336000908152600b602052604081208054839290610836908490610e35565b92505081905550806009600082825461084f9190610e35565b9091555050336000908152600b602052604090206003015460ff166108cc57600a805460018181019092557fc65a7bb8d6351c1cf70c95a316cc6a92839c986682d98bc35f958f4883f9d2a80180546001600160a01b031916339081179091556000908152600b60205260409020600301805460ff191690911790555b336000908152600b6020526040902060038101805461ff0019166101001790556001015461090b57336000908152600b60205260409020436001909101555b61091433610b89565b60408051338152602081018390527fe1fffcc4923d04b559f4d29a8bfc6cda04eb5b0d3c460751c2402c5c5cc9109c9101610735565b6001546001600160a01b031633146109745760405162461bcd60e51b815260040161034590610d96565b60005b600a54811015610a0657600b6000600a838154811061099857610998610e6a565b60009182526020808320909101546001600160a01b0316835282019290925260400190206003015460ff61010090910416156109fe576109fe600a82815481106109e4576109e4610e6a565b6000918252602090912001546001600160a01b0316610b89565b600101610977565b50600a5460408051918252602082018190526019828201527f5375636365737366756c6c7920646973747269627574656421000000000000006060830152517fe3c442d494f7839238fa48d18694a40ec47029eb7cc107e2538430bb44c1222e9181900360800190a1565b6001546001600160a01b03163314610a9b5760405162461bcd60e51b815260040161034590610d96565b806008541015610b215760405162461bcd60e51b815260206004820152604560248201527f536f7272792c2074686520616d6f756e742063616e6e6f74206265206772656160448201527f746572207468616e2074686520746f74616c20666565206f6e2074686520737960648201526439ba32b69760d91b608482015260a401610345565b6001546040516001600160a01b039091169082156108fc029083906000818181858888f19350505050158015610b5b573d6000803e3d6000fd5b5050565b600a8181548110610b6f57600080fd5b6000918252602090912001546001600160a01b0316905081565b6001600160a01b0381166000908152600b60205260409020600101544381108015610bb657506000600954115b610c405760405162461bcd60e51b815260206004820152604f60248201527f536f7272792c206f722074686520626c6f636b206e756d6265727320646f657360448201527f6e74206d617463682c206f722074686520746f74616c207374616b696e67206260648201526e616c616e636520697320656d70747960881b608482015260a401610345565b6000610c4c8243610e22565b6009546001600160a01b0385166000908152600b602052604081205492935091610c769190610e00565b905060008183600454610c899190610de3565b610c939190610de3565b6001600160a01b039095166000908152600b6020526040902060028101959095555050436001909301929092555050565b60006020808352835180602085015260005b81811015610cf257858101830151858201604001528201610cd6565b506000604082860101526040601f19601f8301168501019250505092915050565b600060208284031215610d2557600080fd5b5035919050565b600060208284031215610d3e57600080fd5b81356001600160a01b0381168114610d5557600080fd5b9392505050565b600181811c90821680610d7057607f821691505b602082108103610d9057634e487b7160e01b600052602260045260246000fd5b50919050565b6020808252601b908201527f4f6e6c7920746865206f776e65722063616e20646f20746861742e0000000000604082015260600190565b634e487b7160e01b600052601160045260246000fd5b8082028115828204841417610dfa57610dfa610dcd565b92915050565b600082610e1d57634e487b7160e01b600052601260045260246000fd5b500490565b81810381811115610dfa57610dfa610dcd565b80820180821115610dfa57610dfa610dcd565b600060208284031215610e5a57600080fd5b81518015158114610d5557600080fd5b634e487b7160e01b600052603260045260246000fdfea26469706673582212202a46aae1ba45c93d4d496c5904eb79bc8874ef5073d075a0615c848a15f3f02f64736f6c63430008160033","opcodes":"PUSH1 0xC0 PUSH1 0x40 MSTORE PUSH1 0x17 PUSH1 0x80 SWAP1 DUP2 MSTORE PUSH32 0x50726F706F7274696F6E616C20546F6B656E204661726D000000000000000000 PUSH1 0xA0 MSTORE PUSH1 0x0 SWAP1 PUSH3 0x3E SWAP1 DUP3 PUSH3 0x25A JUMP JUMPDEST POP CALLVALUE DUP1 ISZERO PUSH3 0x4C JUMPI PUSH1 0x0 DUP1 REVERT JUMPDEST POP PUSH1 0x40 MLOAD PUSH3 0x12A8 CODESIZE SUB DUP1 PUSH3 0x12A8 DUP4 CODECOPY DUP2 ADD PUSH1 0x40 DUP2 SWAP1 MSTORE PUSH3 0x6F SWAP2 PUSH3 0x33F JUMP JUMPDEST PUSH1 0x2 DUP1 SLOAD PUSH1 0x1 PUSH1 0x1 PUSH1 0xA0 SHL SUB DUP1 DUP9 AND PUSH1 0x1 PUSH1 0x1 PUSH1 0xA0 SHL SUB NOT SWAP3 DUP4 AND OR SWAP1 SWAP3 SSTORE PUSH1 0x3 DUP1 SLOAD SWAP3 DUP8 AND SWAP3 DUP3 AND SWAP3 SWAP1 SWAP3 OR SWAP1 SWAP2 SSTORE PUSH1 0x1 DUP1 SLOAD SWAP1 SWAP2 AND CALLER OR SWAP1 SSTORE PUSH2 0x2710 DUP2 LT PUSH3 0x114 JUMPI PUSH1 0x40 MLOAD PUSH3 0x461BCD PUSH1 0xE5 SHL DUP2 MSTORE PUSH1 0x20 PUSH1 0x4 DUP3 ADD MSTORE PUSH1 0x2A PUSH1 0x24 DUP3 ADD MSTORE PUSH32 0x46656520616D6F756E742063616E6E6F74206265206772656174657220746861 PUSH1 0x44 DUP3 ADD MSTORE PUSH10 0x6E207468652031303025 PUSH1 0xB0 SHL PUSH1 0x64 DUP3 ADD MSTORE PUSH1 0x84 ADD JUMPDEST PUSH1 0x40 MLOAD DUP1 SWAP2 SUB SWAP1 REVERT JUMPDEST PUSH1 0x7 DUP2 SWAP1 SSTORE DUP2 DUP4 LT PUSH3 0x180 JUMPI PUSH1 0x40 MLOAD PUSH3 0x461BCD PUSH1 0xE5 SHL DUP2 MSTORE PUSH1 0x20 PUSH1 0x4 DUP3 ADD MSTORE PUSH1 0x2D PUSH1 0x24 DUP3 ADD MSTORE PUSH32 0x4D696E205265776172642063616E6E6F74206265206772656174657220746861 PUSH1 0x44 DUP3 ADD MSTORE PUSH13 0x371026B0BC102932BBB0B93217 PUSH1 0x99 SHL PUSH1 0x64 DUP3 ADD MSTORE PUSH1 0x84 ADD PUSH3 0x10B JUMP JUMPDEST PUSH1 0x5 DUP4 SWAP1 SSTORE PUSH1 0x6 DUP3 SWAP1 SSTORE PUSH1 0x2 PUSH3 0x198 DUP4 DUP6 PUSH3 0x397 JUMP JUMPDEST PUSH3 0x1A4 SWAP2 SWAP1 PUSH3 0x3BF JUMP JUMPDEST PUSH1 0x4 SSTORE POP PUSH3 0x3E2 SWAP4 POP POP POP POP JUMP JUMPDEST PUSH4 0x4E487B71 PUSH1 0xE0 SHL PUSH1 0x0 MSTORE PUSH1 0x41 PUSH1 0x4 MSTORE PUSH1 0x24 PUSH1 0x0 REVERT JUMPDEST PUSH1 0x1 DUP2 DUP2 SHR SWAP1 DUP3 AND DUP1 PUSH3 0x1DE JUMPI PUSH1 0x7F DUP3 AND SWAP2 POP JUMPDEST PUSH1 0x20 DUP3 LT DUP2 SUB PUSH3 0x1FF JUMPI PUSH4 0x4E487B71 PUSH1 0xE0 SHL PUSH1 0x0 MSTORE PUSH1 0x22 PUSH1 0x4 MSTORE PUSH1 0x24 PUSH1 0x0 REVERT JUMPDEST POP SWAP2 SWAP1 POP JUMP JUMPDEST PUSH1 0x1F DUP3 GT ISZERO PUSH3 0x255 JUMPI PUSH1 0x0 DUP2 PUSH1 0x0 MSTORE PUSH1 0x20 PUSH1 0x0 KECCAK256 PUSH1 0x1F DUP6 ADD PUSH1 0x5 SHR DUP2 ADD PUSH1 0x20 DUP7 LT ISZERO PUSH3 0x230 JUMPI POP DUP1 JUMPDEST PUSH1 0x1F DUP6 ADD PUSH1 0x5 SHR DUP3 ADD SWAP2 POP JUMPDEST DUP2 DUP2 LT ISZERO PUSH3 0x251 JUMPI DUP3 DUP2 SSTORE PUSH1 0x1 ADD PUSH3 0x23C JUMP JUMPDEST POP POP POP JUMPDEST POP POP POP JUMP JUMPDEST DUP2 MLOAD PUSH1 0x1 PUSH1 0x1 PUSH1 0x40 SHL SUB DUP2 GT ISZERO PUSH3 0x276 JUMPI PUSH3 0x276 PUSH3 0x1B3 JUMP JUMPDEST PUSH3 0x28E DUP2 PUSH3 0x287 DUP5 SLOAD PUSH3 0x1C9 JUMP JUMPDEST DUP5 PUSH3 0x205 JUMP JUMPDEST PUSH1 0x20 DUP1 PUSH1 0x1F DUP4 GT PUSH1 0x1 DUP2 EQ PUSH3 0x2C6 JUMPI PUSH1 0x0 DUP5 ISZERO PUSH3 0x2AD JUMPI POP DUP6 DUP4 ADD MLOAD JUMPDEST PUSH1 0x0 NOT PUSH1 0x3 DUP7 SWAP1 SHL SHR NOT AND PUSH1 0x1 DUP6 SWAP1 SHL OR DUP6 SSTORE PUSH3 0x251 JUMP JUMPDEST PUSH1 0x0 DUP6 DUP2 MSTORE PUSH1 0x20 DUP2 KECCAK256 PUSH1 0x1F NOT DUP7 AND SWAP2 JUMPDEST DUP3 DUP2 LT ISZERO PUSH3 0x2F7 JUMPI DUP9 DUP7 ADD MLOAD DUP3 SSTORE SWAP5 DUP5 ADD SWAP5 PUSH1 0x1 SWAP1 SWAP2 ADD SWAP1 DUP5 ADD PUSH3 0x2D6 JUMP JUMPDEST POP DUP6 DUP3 LT ISZERO PUSH3 0x316 JUMPI DUP8 DUP6 ADD MLOAD PUSH1 0x0 NOT PUSH1 0x3 DUP9 SWAP1 SHL PUSH1 0xF8 AND SHR NOT AND DUP2 SSTORE JUMPDEST POP POP POP POP POP PUSH1 0x1 SWAP1 DUP2 SHL ADD SWAP1 SSTORE POP JUMP JUMPDEST PUSH1 0x1 PUSH1 0x1 PUSH1 0xA0 SHL SUB DUP2 AND DUP2 EQ PUSH3 0x33C JUMPI PUSH1 0x0 DUP1 REVERT JUMPDEST POP JUMP JUMPDEST PUSH1 0x0 DUP1 PUSH1 0x0 DUP1 PUSH1 0x0 PUSH1 0xA0 DUP7 DUP9 SUB SLT ISZERO PUSH3 0x358 JUMPI PUSH1 0x0 DUP1 REVERT JUMPDEST DUP6 MLOAD PUSH3 0x365 DUP2 PUSH3 0x326 JUMP JUMPDEST PUSH1 0x20 DUP8 ADD MLOAD SWAP1 SWAP6 POP PUSH3 0x378 DUP2 PUSH3 0x326 JUMP JUMPDEST PUSH1 0x40 DUP8 ADD MLOAD PUSH1 0x60 DUP9 ADD MLOAD PUSH1 0x80 SWAP1 SWAP9 ADD MLOAD SWAP7 SWAP10 SWAP2 SWAP9 POP SWAP7 SWAP6 SWAP5 POP SWAP3 POP POP POP JUMP JUMPDEST DUP1 DUP3 ADD DUP1 DUP3 GT ISZERO PUSH3 0x3B9 JUMPI PUSH4 0x4E487B71 PUSH1 0xE0 SHL PUSH1 0x0 MSTORE PUSH1 0x11 PUSH1 0x4 MSTORE PUSH1 0x24 PUSH1 0x0 REVERT JUMPDEST SWAP3 SWAP2 POP POP JUMP JUMPDEST PUSH1 0x0 DUP3 PUSH3 0x3DD JUMPI PUSH4 0x4E487B71 PUSH1 0xE0 SHL PUSH1 0x0 MSTORE PUSH1 0x12 PUSH1 0x4 MSTORE PUSH1 0x24 PUSH1 0x0 REVERT JUMPDEST POP DIV SWAP1 JUMP JUMPDEST PUSH2 0xEB6 DUP1 PUSH3 0x3F2 PUSH1 0x0 CODECOPY PUSH1 0x0 RETURN INVALID PUSH1 0x80 PUSH1 0x40 MSTORE CALLVALUE DUP1 ISZERO PUSH2 0x10 JUMPI PUSH1 0x0 DUP1 REVERT JUMPDEST POP PUSH1 0x4 CALLDATASIZE LT PUSH2 0x10B JUMPI PUSH1 0x0 CALLDATALOAD PUSH1 0xE0 SHR DUP1 PUSH4 0x8DA5CB5B GT PUSH2 0xA2 JUMPI DUP1 PUSH4 0xBA16D600 GT PUSH2 0x71 JUMPI DUP1 PUSH4 0xBA16D600 EQ PUSH2 0x24D JUMPI DUP1 PUSH4 0xDB03E227 EQ PUSH2 0x256 JUMPI DUP1 PUSH4 0xE766C835 EQ PUSH2 0x25E JUMPI DUP1 PUSH4 0xF667526A EQ PUSH2 0x267 JUMPI DUP1 PUSH4 0xFD5E6DD1 EQ PUSH2 0x27A JUMPI PUSH1 0x0 DUP1 REVERT JUMPDEST DUP1 PUSH4 0x8DA5CB5B EQ PUSH2 0x215 JUMPI DUP1 PUSH4 0x8DF4A3A5 EQ PUSH2 0x228 JUMPI DUP1 PUSH4 0x975532DC EQ PUSH2 0x231 JUMPI DUP1 PUSH4 0xB6B55F25 EQ PUSH2 0x23A JUMPI PUSH1 0x0 DUP1 REVERT JUMPDEST DUP1 PUSH4 0x5EB186F8 GT PUSH2 0xDE JUMPI DUP1 PUSH4 0x5EB186F8 EQ PUSH2 0x153 JUMPI DUP1 PUSH4 0x5FCBD285 EQ PUSH2 0x17E JUMPI DUP1 PUSH4 0x66A78E6C EQ PUSH2 0x191 JUMPI DUP1 PUSH4 0x81E7E20E EQ PUSH2 0x1A8 JUMPI PUSH1 0x0 DUP1 REVERT JUMPDEST DUP1 PUSH4 0x6FDDE03 EQ PUSH2 0x110 JUMPI DUP1 PUSH4 0x293BE456 EQ PUSH2 0x12E JUMPI DUP1 PUSH4 0x372500AB EQ PUSH2 0x143 JUMPI DUP1 PUSH4 0x3CCFD60B EQ PUSH2 0x14B JUMPI JUMPDEST PUSH1 0x0 DUP1 REVERT JUMPDEST PUSH2 0x118 PUSH2 0x28D JUMP JUMPDEST PUSH1 0x40 MLOAD PUSH2 0x125 SWAP2 SWAP1 PUSH2 0xCC4 JUMP JUMPDEST PUSH1 0x40 MLOAD DUP1 SWAP2 SUB SWAP1 RETURN JUMPDEST PUSH2 0x141 PUSH2 0x13C CALLDATASIZE PUSH1 0x4 PUSH2 0xD13 JUMP JUMPDEST PUSH2 0x31B JUMP JUMPDEST STOP JUMPDEST PUSH2 0x141 PUSH2 0x3D8 JUMP JUMPDEST PUSH2 0x141 PUSH2 0x54F JUMP JUMPDEST PUSH1 0x2 SLOAD PUSH2 0x166 SWAP1 PUSH1 0x1 PUSH1 0x1 PUSH1 0xA0 SHL SUB AND DUP2 JUMP JUMPDEST PUSH1 0x40 MLOAD PUSH1 0x1 PUSH1 0x1 PUSH1 0xA0 SHL SUB SWAP1 SWAP2 AND DUP2 MSTORE PUSH1 0x20 ADD PUSH2 0x125 JUMP JUMPDEST PUSH1 0x3 SLOAD PUSH2 0x166 SWAP1 PUSH1 0x1 PUSH1 0x1 PUSH1 0xA0 SHL SUB AND DUP2 JUMP JUMPDEST PUSH2 0x19A PUSH1 0x6 SLOAD DUP2 JUMP JUMPDEST PUSH1 0x40 MLOAD SWAP1 DUP2 MSTORE PUSH1 0x20 ADD PUSH2 0x125 JUMP JUMPDEST PUSH2 0x1E9 PUSH2 0x1B6 CALLDATASIZE PUSH1 0x4 PUSH2 0xD2C JUMP JUMPDEST PUSH1 0xB PUSH1 0x20 MSTORE PUSH1 0x0 SWAP1 DUP2 MSTORE PUSH1 0x40 SWAP1 KECCAK256 DUP1 SLOAD PUSH1 0x1 DUP3 ADD SLOAD PUSH1 0x2 DUP4 ADD SLOAD PUSH1 0x3 SWAP1 SWAP4 ADD SLOAD SWAP2 SWAP3 SWAP1 SWAP2 PUSH1 0xFF DUP1 DUP3 AND SWAP2 PUSH2 0x100 SWAP1 DIV AND DUP6 JUMP JUMPDEST PUSH1 0x40 DUP1 MLOAD SWAP6 DUP7 MSTORE PUSH1 0x20 DUP7 ADD SWAP5 SWAP1 SWAP5 MSTORE SWAP3 DUP5 ADD SWAP2 SWAP1 SWAP2 MSTORE ISZERO ISZERO PUSH1 0x60 DUP4 ADD MSTORE ISZERO ISZERO PUSH1 0x80 DUP3 ADD MSTORE PUSH1 0xA0 ADD PUSH2 0x125 JUMP JUMPDEST PUSH1 0x1 SLOAD PUSH2 0x166 SWAP1 PUSH1 0x1 PUSH1 0x1 PUSH1 0xA0 SHL SUB AND DUP2 JUMP JUMPDEST PUSH2 0x19A PUSH1 0x7 SLOAD DUP2 JUMP JUMPDEST PUSH2 0x19A PUSH1 0x4 SLOAD DUP2 JUMP JUMPDEST PUSH2 0x141 PUSH2 0x248 CALLDATASIZE PUSH1 0x4 PUSH2 0xD13 JUMP JUMPDEST PUSH2 0x740 JUMP JUMPDEST PUSH2 0x19A PUSH1 0x5 SLOAD DUP2 JUMP JUMPDEST PUSH2 0x141 PUSH2 0x94A JUMP JUMPDEST PUSH2 0x19A PUSH1 0x9 SLOAD DUP2 JUMP JUMPDEST PUSH2 0x141 PUSH2 0x275 CALLDATASIZE PUSH1 0x4 PUSH2 0xD13 JUMP JUMPDEST PUSH2 0xA71 JUMP JUMPDEST PUSH2 0x166 PUSH2 0x288 CALLDATASIZE PUSH1 0x4 PUSH2 0xD13 JUMP JUMPDEST PUSH2 0xB5F JUMP JUMPDEST PUSH1 0x0 DUP1 SLOAD PUSH2 0x29A SWAP1 PUSH2 0xD5C JUMP JUMPDEST DUP1 PUSH1 0x1F ADD PUSH1 0x20 DUP1 SWAP2 DIV MUL PUSH1 0x20 ADD PUSH1 0x40 MLOAD SWAP1 DUP2 ADD PUSH1 0x40 MSTORE DUP1 SWAP3 SWAP2 SWAP1 DUP2 DUP2 MSTORE PUSH1 0x20 ADD DUP3 DUP1 SLOAD PUSH2 0x2C6 SWAP1 PUSH2 0xD5C JUMP JUMPDEST DUP1 ISZERO PUSH2 0x313 JUMPI DUP1 PUSH1 0x1F LT PUSH2 0x2E8 JUMPI PUSH2 0x100 DUP1 DUP4 SLOAD DIV MUL DUP4 MSTORE SWAP2 PUSH1 0x20 ADD SWAP2 PUSH2 0x313 JUMP JUMPDEST DUP3 ADD SWAP2 SWAP1 PUSH1 0x0 MSTORE PUSH1 0x20 PUSH1 0x0 KECCAK256 SWAP1 JUMPDEST DUP2 SLOAD DUP2 MSTORE SWAP1 PUSH1 0x1 ADD SWAP1 PUSH1 0x20 ADD DUP1 DUP4 GT PUSH2 0x2F6 JUMPI DUP3 SWAP1 SUB PUSH1 0x1F AND DUP3 ADD SWAP2 JUMPDEST POP POP POP POP POP DUP2 JUMP JUMPDEST PUSH1 0x1 SLOAD PUSH1 0x1 PUSH1 0x1 PUSH1 0xA0 SHL SUB AND CALLER EQ PUSH2 0x34E JUMPI PUSH1 0x40 MLOAD PUSH3 0x461BCD PUSH1 0xE5 SHL DUP2 MSTORE PUSH1 0x4 ADD PUSH2 0x345 SWAP1 PUSH2 0xD96 JUMP JUMPDEST PUSH1 0x40 MLOAD DUP1 SWAP2 SUB SWAP1 REVERT JUMPDEST PUSH1 0x5 SLOAD DUP2 LT ISZERO DUP1 PUSH2 0x361 JUMPI POP PUSH1 0x6 SLOAD DUP2 GT ISZERO JUMPDEST PUSH2 0x3D3 JUMPI PUSH1 0x40 MLOAD PUSH3 0x461BCD PUSH1 0xE5 SHL DUP2 MSTORE PUSH1 0x20 PUSH1 0x4 DUP3 ADD MSTORE PUSH1 0x3D PUSH1 0x24 DUP3 ADD MSTORE PUSH32 0x536F7272792C20796F752063616E7420676F206265796F6E6420746865206D69 PUSH1 0x44 DUP3 ADD MSTORE PUSH32 0x6E20616E64206D61782065737461626C69736865642076616C7565732E000000 PUSH1 0x64 DUP3 ADD MSTORE PUSH1 0x84 ADD PUSH2 0x345 JUMP JUMPDEST PUSH1 0x4 SSTORE JUMP JUMPDEST CALLER PUSH1 0x0 SWAP1 DUP2 MSTORE PUSH1 0xB PUSH1 0x20 MSTORE PUSH1 0x40 SWAP1 KECCAK256 PUSH1 0x2 ADD SLOAD DUP1 PUSH2 0x456 JUMPI PUSH1 0x40 MLOAD PUSH3 0x461BCD PUSH1 0xE5 SHL DUP2 MSTORE PUSH1 0x20 PUSH1 0x4 DUP3 ADD MSTORE PUSH1 0x35 PUSH1 0x24 DUP3 ADD MSTORE PUSH32 0x50656E64696E6720416D6F756E74206973207A65726F206F72206C6573736572 PUSH1 0x44 DUP3 ADD MSTORE PUSH21 0x16103BB29031B0B73737BA1031B7B73A34B73AB297 PUSH1 0x59 SHL PUSH1 0x64 DUP3 ADD MSTORE PUSH1 0x84 ADD PUSH2 0x345 JUMP JUMPDEST CALLER PUSH1 0x0 SWAP1 DUP2 MSTORE PUSH1 0xB PUSH1 0x20 MSTORE PUSH1 0x40 DUP2 KECCAK256 PUSH1 0x2 ADD DUP2 SWAP1 SSTORE PUSH1 0x7 SLOAD PUSH2 0x2710 SWAP1 PUSH2 0x47C SWAP1 DUP5 PUSH2 0xDE3 JUMP JUMPDEST PUSH2 0x486 SWAP2 SWAP1 PUSH2 0xE00 JUMP JUMPDEST SWAP1 POP PUSH1 0x0 PUSH2 0x494 DUP3 DUP5 PUSH2 0xE22 JUMP JUMPDEST SWAP1 POP DUP2 PUSH1 0x8 PUSH1 0x0 DUP3 DUP3 SLOAD PUSH2 0x4A8 SWAP2 SWAP1 PUSH2 0xE35 JUMP JUMPDEST SWAP1 SWAP2 SSTORE POP POP PUSH1 0x2 SLOAD PUSH1 0x40 MLOAD PUSH4 0x40C10F19 PUSH1 0xE0 SHL DUP2 MSTORE CALLER PUSH1 0x4 DUP3 ADD MSTORE PUSH1 0x24 DUP2 ADD DUP4 SWAP1 MSTORE PUSH1 0x1 PUSH1 0x1 PUSH1 0xA0 SHL SUB SWAP1 SWAP2 AND SWAP1 PUSH4 0x40C10F19 SWAP1 PUSH1 0x44 ADD PUSH1 0x0 PUSH1 0x40 MLOAD DUP1 DUP4 SUB DUP2 PUSH1 0x0 DUP8 DUP1 EXTCODESIZE ISZERO DUP1 ISZERO PUSH2 0x4F9 JUMPI PUSH1 0x0 DUP1 REVERT JUMPDEST POP GAS CALL ISZERO DUP1 ISZERO PUSH2 0x50D JUMPI RETURNDATASIZE PUSH1 0x0 DUP1 RETURNDATACOPY RETURNDATASIZE PUSH1 0x0 REVERT JUMPDEST POP POP PUSH1 0x40 DUP1 MLOAD DUP7 DUP2 MSTORE CALLER PUSH1 0x20 DUP3 ADD MSTORE PUSH32 0x3FAF1B981F3F8F6D61498A40CD97BECBE364C8DA8A0F92C1CDEC3051DEEF9F19 SWAP4 POP ADD SWAP1 POP PUSH1 0x40 MLOAD DUP1 SWAP2 SUB SWAP1 LOG1 POP POP POP JUMP JUMPDEST CALLER PUSH1 0x0 SWAP1 DUP2 MSTORE PUSH1 0xB PUSH1 0x20 MSTORE PUSH1 0x40 SWAP1 KECCAK256 PUSH1 0x3 ADD SLOAD PUSH1 0xFF PUSH2 0x100 SWAP1 SWAP2 DIV AND ISZERO ISZERO PUSH1 0x1 EQ PUSH2 0x5BC JUMPI PUSH1 0x40 MLOAD PUSH3 0x461BCD PUSH1 0xE5 SHL DUP2 MSTORE PUSH1 0x20 PUSH1 0x4 DUP3 ADD MSTORE PUSH1 0x17 PUSH1 0x24 DUP3 ADD MSTORE PUSH32 0x5468652075736572206973206E6F74207374616B696E67000000000000000000 PUSH1 0x44 DUP3 ADD MSTORE PUSH1 0x64 ADD PUSH2 0x345 JUMP JUMPDEST CALLER PUSH1 0x0 SWAP1 DUP2 MSTORE PUSH1 0xB PUSH1 0x20 MSTORE PUSH1 0x40 SWAP1 KECCAK256 SLOAD DUP1 PUSH2 0x63F JUMPI PUSH1 0x40 MLOAD PUSH3 0x461BCD PUSH1 0xE5 SHL DUP2 MSTORE PUSH1 0x20 PUSH1 0x4 DUP3 ADD MSTORE PUSH1 0x3E PUSH1 0x24 DUP3 ADD MSTORE PUSH32 0x496D20736F7272792C207468652063757272656E74207374616B696E67206261 PUSH1 0x44 DUP3 ADD MSTORE PUSH32 0x6C616E6365206F662074686973206164647265737320697320656D7074790000 PUSH1 0x64 DUP3 ADD MSTORE PUSH1 0x84 ADD PUSH2 0x345 JUMP JUMPDEST PUSH2 0x648 CALLER PUSH2 0xB89 JUMP JUMPDEST CALLER PUSH1 0x0 SWAP1 DUP2 MSTORE PUSH1 0xB PUSH1 0x20 MSTORE PUSH1 0x40 DUP2 KECCAK256 DUP2 SWAP1 SSTORE PUSH1 0x9 DUP1 SLOAD DUP4 SWAP3 SWAP1 PUSH2 0x66C SWAP1 DUP5 SWAP1 PUSH2 0xE22 JUMP JUMPDEST SWAP1 SWAP2 SSTORE POP POP CALLER PUSH1 0x0 DUP2 DUP2 MSTORE PUSH1 0xB PUSH1 0x20 MSTORE PUSH1 0x40 SWAP1 DUP2 SWAP1 KECCAK256 PUSH1 0x3 SWAP1 DUP2 ADD DUP1 SLOAD PUSH2 0xFF00 NOT AND SWAP1 SSTORE SLOAD SWAP1 MLOAD PUSH4 0xA9059CBB PUSH1 0xE0 SHL DUP2 MSTORE PUSH1 0x4 DUP2 ADD SWAP3 SWAP1 SWAP3 MSTORE PUSH1 0x24 DUP3 ADD DUP4 SWAP1 MSTORE PUSH1 0x1 PUSH1 0x1 PUSH1 0xA0 SHL SUB AND SWAP1 PUSH4 0xA9059CBB SWAP1 PUSH1 0x44 ADD PUSH1 0x20 PUSH1 0x40 MLOAD DUP1 DUP4 SUB DUP2 PUSH1 0x0 DUP8 GAS CALL ISZERO DUP1 ISZERO PUSH2 0x6DE JUMPI RETURNDATASIZE PUSH1 0x0 DUP1 RETURNDATACOPY RETURNDATASIZE PUSH1 0x0 REVERT JUMPDEST POP POP POP POP PUSH1 0x40 MLOAD RETURNDATASIZE PUSH1 0x1F NOT PUSH1 0x1F DUP3 ADD AND DUP3 ADD DUP1 PUSH1 0x40 MSTORE POP DUP2 ADD SWAP1 PUSH2 0x702 SWAP2 SWAP1 PUSH2 0xE48 JUMP JUMPDEST POP PUSH1 0x40 DUP1 MLOAD CALLER DUP2 MSTORE PUSH1 0x20 DUP2 ADD DUP4 SWAP1 MSTORE PUSH32 0x884EDAD9CE6FA2440D8A54CC123490EB96D2768479D49FF9C7366125A9424364 SWAP2 ADD JUMPDEST PUSH1 0x40 MLOAD DUP1 SWAP2 SUB SWAP1 LOG1 POP JUMP JUMPDEST PUSH1 0x0 DUP2 GT PUSH2 0x79B JUMPI PUSH1 0x40 MLOAD PUSH3 0x461BCD PUSH1 0xE5 SHL DUP2 MSTORE PUSH1 0x20 PUSH1 0x4 DUP3 ADD MSTORE PUSH1 0x22 PUSH1 0x24 DUP3 ADD MSTORE PUSH32 0x54686520616D6F756E742063616E6E6F74206265206C6573736572207468616E PUSH1 0x44 DUP3 ADD MSTORE PUSH2 0x2031 PUSH1 0xF0 SHL PUSH1 0x64 DUP3 ADD MSTORE PUSH1 0x84 ADD PUSH2 0x345 JUMP JUMPDEST PUSH1 0x3 SLOAD PUSH1 0x40 MLOAD PUSH4 0x23B872DD PUSH1 0xE0 SHL DUP2 MSTORE CALLER PUSH1 0x4 DUP3 ADD MSTORE ADDRESS PUSH1 0x24 DUP3 ADD MSTORE PUSH1 0x44 DUP2 ADD DUP4 SWAP1 MSTORE PUSH1 0x1 PUSH1 0x1 PUSH1 0xA0 SHL SUB SWAP1 SWAP2 AND SWAP1 PUSH4 0x23B872DD SWAP1 PUSH1 0x64 ADD PUSH1 0x20 PUSH1 0x40 MLOAD DUP1 DUP4 SUB DUP2 PUSH1 0x0 DUP8 GAS CALL ISZERO DUP1 ISZERO PUSH2 0x7F2 JUMPI RETURNDATASIZE PUSH1 0x0 DUP1 RETURNDATACOPY RETURNDATASIZE PUSH1 0x0 REVERT JUMPDEST POP POP POP POP PUSH1 0x40 MLOAD RETURNDATASIZE PUSH1 0x1F NOT PUSH1 0x1F DUP3 ADD AND DUP3 ADD DUP1 PUSH1 0x40 MSTORE POP DUP2 ADD SWAP1 PUSH2 0x816 SWAP2 SWAP1 PUSH2 0xE48 JUMP JUMPDEST POP CALLER PUSH1 0x0 SWAP1 DUP2 MSTORE PUSH1 0xB PUSH1 0x20 MSTORE PUSH1 0x40 DUP2 KECCAK256 DUP1 SLOAD DUP4 SWAP3 SWAP1 PUSH2 0x836 SWAP1 DUP5 SWAP1 PUSH2 0xE35 JUMP JUMPDEST SWAP3 POP POP DUP2 SWAP1 SSTORE POP DUP1 PUSH1 0x9 PUSH1 0x0 DUP3 DUP3 SLOAD PUSH2 0x84F SWAP2 SWAP1 PUSH2 0xE35 JUMP JUMPDEST SWAP1 SWAP2 SSTORE POP POP CALLER PUSH1 0x0 SWAP1 DUP2 MSTORE PUSH1 0xB PUSH1 0x20 MSTORE PUSH1 0x40 SWAP1 KECCAK256 PUSH1 0x3 ADD SLOAD PUSH1 0xFF AND PUSH2 0x8CC JUMPI PUSH1 0xA DUP1 SLOAD PUSH1 0x1 DUP2 DUP2 ADD SWAP1 SWAP3 SSTORE PUSH32 0xC65A7BB8D6351C1CF70C95A316CC6A92839C986682D98BC35F958F4883F9D2A8 ADD DUP1 SLOAD PUSH1 0x1 PUSH1 0x1 PUSH1 0xA0 SHL SUB NOT AND CALLER SWAP1 DUP2 OR SWAP1 SWAP2 SSTORE PUSH1 0x0 SWAP1 DUP2 MSTORE PUSH1 0xB PUSH1 0x20 MSTORE PUSH1 0x40 SWAP1 KECCAK256 PUSH1 0x3 ADD DUP1 SLOAD PUSH1 0xFF NOT AND SWAP1 SWAP2 OR SWAP1 SSTORE JUMPDEST CALLER PUSH1 0x0 SWAP1 DUP2 MSTORE PUSH1 0xB PUSH1 0x20 MSTORE PUSH1 0x40 SWAP1 KECCAK256 PUSH1 0x3 DUP2 ADD DUP1 SLOAD PUSH2 0xFF00 NOT AND PUSH2 0x100 OR SWAP1 SSTORE PUSH1 0x1 ADD SLOAD PUSH2 0x90B JUMPI CALLER PUSH1 0x0 SWAP1 DUP2 MSTORE PUSH1 0xB PUSH1 0x20 MSTORE PUSH1 0x40 SWAP1 KECCAK256 NUMBER PUSH1 0x1 SWAP1 SWAP2 ADD SSTORE JUMPDEST PUSH2 0x914 CALLER PUSH2 0xB89 JUMP JUMPDEST PUSH1 0x40 DUP1 MLOAD CALLER DUP2 MSTORE PUSH1 0x20 DUP2 ADD DUP4 SWAP1 MSTORE PUSH32 0xE1FFFCC4923D04B559F4D29A8BFC6CDA04EB5B0D3C460751C2402C5C5CC9109C SWAP2 ADD PUSH2 0x735 JUMP JUMPDEST PUSH1 0x1 SLOAD PUSH1 0x1 PUSH1 0x1 PUSH1 0xA0 SHL SUB AND CALLER EQ PUSH2 0x974 JUMPI PUSH1 0x40 MLOAD PUSH3 0x461BCD PUSH1 0xE5 SHL DUP2 MSTORE PUSH1 0x4 ADD PUSH2 0x345 SWAP1 PUSH2 0xD96 JUMP JUMPDEST PUSH1 0x0 JUMPDEST PUSH1 0xA SLOAD DUP2 LT ISZERO PUSH2 0xA06 JUMPI PUSH1 0xB PUSH1 0x0 PUSH1 0xA DUP4 DUP2 SLOAD DUP2 LT PUSH2 0x998 JUMPI PUSH2 0x998 PUSH2 0xE6A JUMP JUMPDEST PUSH1 0x0 SWAP2 DUP3 MSTORE PUSH1 0x20 DUP1 DUP4 KECCAK256 SWAP1 SWAP2 ADD SLOAD PUSH1 0x1 PUSH1 0x1 PUSH1 0xA0 SHL SUB AND DUP4 MSTORE DUP3 ADD SWAP3 SWAP1 SWAP3 MSTORE PUSH1 0x40 ADD SWAP1 KECCAK256 PUSH1 0x3 ADD SLOAD PUSH1 0xFF PUSH2 0x100 SWAP1 SWAP2 DIV AND ISZERO PUSH2 0x9FE JUMPI PUSH2 0x9FE PUSH1 0xA DUP3 DUP2 SLOAD DUP2 LT PUSH2 0x9E4 JUMPI PUSH2 0x9E4 PUSH2 0xE6A JUMP JUMPDEST PUSH1 0x0 SWAP2 DUP3 MSTORE PUSH1 0x20 SWAP1 SWAP2 KECCAK256 ADD SLOAD PUSH1 0x1 PUSH1 0x1 PUSH1 0xA0 SHL SUB AND PUSH2 0xB89 JUMP JUMPDEST PUSH1 0x1 ADD PUSH2 0x977 JUMP JUMPDEST POP PUSH1 0xA SLOAD PUSH1 0x40 DUP1 MLOAD SWAP2 DUP3 MSTORE PUSH1 0x20 DUP3 ADD DUP2 SWAP1 MSTORE PUSH1 0x19 DUP3 DUP3 ADD MSTORE PUSH32 0x5375636365737366756C6C792064697374726962757465642100000000000000 PUSH1 0x60 DUP4 ADD MSTORE MLOAD PUSH32 0xE3C442D494F7839238FA48D18694A40EC47029EB7CC107E2538430BB44C1222E SWAP2 DUP2 SWAP1 SUB PUSH1 0x80 ADD SWAP1 LOG1 JUMP JUMPDEST PUSH1 0x1 SLOAD PUSH1 0x1 PUSH1 0x1 PUSH1 0xA0 SHL SUB AND CALLER EQ PUSH2 0xA9B JUMPI PUSH1 0x40 MLOAD PUSH3 0x461BCD PUSH1 0xE5 SHL DUP2 MSTORE PUSH1 0x4 ADD PUSH2 0x345 SWAP1 PUSH2 0xD96 JUMP JUMPDEST DUP1 PUSH1 0x8 SLOAD LT ISZERO PUSH2 0xB21 JUMPI PUSH1 0x40 MLOAD PUSH3 0x461BCD PUSH1 0xE5 SHL DUP2 MSTORE PUSH1 0x20 PUSH1 0x4 DUP3 ADD MSTORE PUSH1 0x45 PUSH1 0x24 DUP3 ADD MSTORE PUSH32 0x536F7272792C2074686520616D6F756E742063616E6E6F742062652067726561 PUSH1 0x44 DUP3 ADD MSTORE PUSH32 0x746572207468616E2074686520746F74616C20666565206F6E20746865207379 PUSH1 0x64 DUP3 ADD MSTORE PUSH5 0x39BA32B697 PUSH1 0xD9 SHL PUSH1 0x84 DUP3 ADD MSTORE PUSH1 0xA4 ADD PUSH2 0x345 JUMP JUMPDEST PUSH1 0x1 SLOAD PUSH1 0x40 MLOAD PUSH1 0x1 PUSH1 0x1 PUSH1 0xA0 SHL SUB SWAP1 SWAP2 AND SWAP1 DUP3 ISZERO PUSH2 0x8FC MUL SWAP1 DUP4 SWAP1 PUSH1 0x0 DUP2 DUP2 DUP2 DUP6 DUP9 DUP9 CALL SWAP4 POP POP POP POP ISZERO DUP1 ISZERO PUSH2 0xB5B JUMPI RETURNDATASIZE PUSH1 0x0 DUP1 RETURNDATACOPY RETURNDATASIZE PUSH1 0x0 REVERT JUMPDEST POP POP JUMP JUMPDEST PUSH1 0xA DUP2 DUP2 SLOAD DUP2 LT PUSH2 0xB6F JUMPI PUSH1 0x0 DUP1 REVERT JUMPDEST PUSH1 0x0 SWAP2 DUP3 MSTORE PUSH1 0x20 SWAP1 SWAP2 KECCAK256 ADD SLOAD PUSH1 0x1 PUSH1 0x1 PUSH1 0xA0 SHL SUB AND SWAP1 POP DUP2 JUMP JUMPDEST PUSH1 0x1 PUSH1 0x1 PUSH1 0xA0 SHL SUB DUP2 AND PUSH1 0x0 SWAP1 DUP2 MSTORE PUSH1 0xB PUSH1 0x20 MSTORE PUSH1 0x40 SWAP1 KECCAK256 PUSH1 0x1 ADD SLOAD NUMBER DUP2 LT DUP1 ISZERO PUSH2 0xBB6 JUMPI POP PUSH1 0x0 PUSH1 0x9 SLOAD GT JUMPDEST PUSH2 0xC40 JUMPI PUSH1 0x40 MLOAD PUSH3 0x461BCD PUSH1 0xE5 SHL DUP2 MSTORE PUSH1 0x20 PUSH1 0x4 DUP3 ADD MSTORE PUSH1 0x4F PUSH1 0x24 DUP3 ADD MSTORE PUSH32 0x536F7272792C206F722074686520626C6F636B206E756D6265727320646F6573 PUSH1 0x44 DUP3 ADD MSTORE PUSH32 0x6E74206D617463682C206F722074686520746F74616C207374616B696E672062 PUSH1 0x64 DUP3 ADD MSTORE PUSH15 0x616C616E636520697320656D707479 PUSH1 0x88 SHL PUSH1 0x84 DUP3 ADD MSTORE PUSH1 0xA4 ADD PUSH2 0x345 JUMP JUMPDEST PUSH1 0x0 PUSH2 0xC4C DUP3 NUMBER PUSH2 0xE22 JUMP JUMPDEST PUSH1 0x9 SLOAD PUSH1 0x1 PUSH1 0x1 PUSH1 0xA0 SHL SUB DUP6 AND PUSH1 0x0 SWAP1 DUP2 MSTORE PUSH1 0xB PUSH1 0x20 MSTORE PUSH1 0x40 DUP2 KECCAK256 SLOAD SWAP3 SWAP4 POP SWAP2 PUSH2 0xC76 SWAP2 SWAP1 PUSH2 0xE00 JUMP JUMPDEST SWAP1 POP PUSH1 0x0 DUP2 DUP4 PUSH1 0x4 SLOAD PUSH2 0xC89 SWAP2 SWAP1 PUSH2 0xDE3 JUMP JUMPDEST PUSH2 0xC93 SWAP2 SWAP1 PUSH2 0xDE3 JUMP JUMPDEST PUSH1 0x1 PUSH1 0x1 PUSH1 0xA0 SHL SUB SWAP1 SWAP6 AND PUSH1 0x0 SWAP1 DUP2 MSTORE PUSH1 0xB PUSH1 0x20 MSTORE PUSH1 0x40 SWAP1 KECCAK256 PUSH1 0x2 DUP2 ADD SWAP6 SWAP1 SWAP6 SSTORE POP POP NUMBER PUSH1 0x1 SWAP1 SWAP4 ADD SWAP3 SWAP1 SWAP3 SSTORE POP POP JUMP JUMPDEST PUSH1 0x0 PUSH1 0x20 DUP1 DUP4 MSTORE DUP4 MLOAD DUP1 PUSH1 0x20 DUP6 ADD MSTORE PUSH1 0x0 JUMPDEST DUP2 DUP2 LT ISZERO PUSH2 0xCF2 JUMPI DUP6 DUP2 ADD DUP4 ADD MLOAD DUP6 DUP3 ADD PUSH1 0x40 ADD MSTORE DUP3 ADD PUSH2 0xCD6 JUMP JUMPDEST POP PUSH1 0x0 PUSH1 0x40 DUP3 DUP7 ADD ADD MSTORE PUSH1 0x40 PUSH1 0x1F NOT PUSH1 0x1F DUP4 ADD AND DUP6 ADD ADD SWAP3 POP POP POP SWAP3 SWAP2 POP POP JUMP JUMPDEST PUSH1 0x0 PUSH1 0x20 DUP3 DUP5 SUB SLT ISZERO PUSH2 0xD25 JUMPI PUSH1 0x0 DUP1 REVERT JUMPDEST POP CALLDATALOAD SWAP2 SWAP1 POP JUMP JUMPDEST PUSH1 0x0 PUSH1 0x20 DUP3 DUP5 SUB SLT ISZERO PUSH2 0xD3E JUMPI PUSH1 0x0 DUP1 REVERT JUMPDEST DUP2 CALLDATALOAD PUSH1 0x1 PUSH1 0x1 PUSH1 0xA0 SHL SUB DUP2 AND DUP2 EQ PUSH2 0xD55 JUMPI PUSH1 0x0 DUP1 REVERT JUMPDEST SWAP4 SWAP3 POP POP POP JUMP JUMPDEST PUSH1 0x1 DUP2 DUP2 SHR SWAP1 DUP3 AND DUP1 PUSH2 0xD70 JUMPI PUSH1 0x7F DUP3 AND SWAP2 POP JUMPDEST PUSH1 0x20 DUP3 LT DUP2 SUB PUSH2 0xD90 JUMPI PUSH4 0x4E487B71 PUSH1 0xE0 SHL PUSH1 0x0 MSTORE PUSH1 0x22 PUSH1 0x4 MSTORE PUSH1 0x24 PUSH1 0x0 REVERT JUMPDEST POP SWAP2 SWAP1 POP JUMP JUMPDEST PUSH1 0x20 DUP1 DUP3 MSTORE PUSH1 0x1B SWAP1 DUP3 ADD MSTORE PUSH32 0x4F6E6C7920746865206F776E65722063616E20646F20746861742E0000000000 PUSH1 0x40 DUP3 ADD MSTORE PUSH1 0x60 ADD SWAP1 JUMP JUMPDEST PUSH4 0x4E487B71 PUSH1 0xE0 SHL PUSH1 0x0 MSTORE PUSH1 0x11 PUSH1 0x4 MSTORE PUSH1 0x24 PUSH1 0x0 REVERT JUMPDEST DUP1 DUP3 MUL DUP2 ISZERO DUP3 DUP3 DIV DUP5 EQ OR PUSH2 0xDFA JUMPI PUSH2 0xDFA PUSH2 0xDCD JUMP JUMPDEST SWAP3 SWAP2 POP POP JUMP JUMPDEST PUSH1 0x0 DUP3 PUSH2 0xE1D JUMPI PUSH4 0x4E487B71 PUSH1 0xE0 SHL PUSH1 0x0 MSTORE PUSH1 0x12 PUSH1 0x4 MSTORE PUSH1 0x24 PUSH1 0x0 REVERT JUMPDEST POP DIV SWAP1 JUMP JUMPDEST DUP2 DUP2 SUB DUP2 DUP2 GT ISZERO PUSH2 0xDFA JUMPI PUSH2 0xDFA PUSH2 0xDCD JUMP JUMPDEST DUP1 DUP3 ADD DUP1 DUP3 GT ISZERO PUSH2 0xDFA JUMPI PUSH2 0xDFA PUSH2 0xDCD JUMP JUMPDEST PUSH1 0x0 PUSH1 0x20 DUP3 DUP5 SUB SLT ISZERO PUSH2 0xE5A JUMPI PUSH1 0x0 DUP1 REVERT JUMPDEST DUP2 MLOAD DUP1 ISZERO ISZERO DUP2 EQ PUSH2 0xD55 JUMPI PUSH1 0x0 DUP1 REVERT JUMPDEST PUSH4 0x4E487B71 PUSH1 0xE0 SHL PUSH1 0x0 MSTORE PUSH1 0x32 PUSH1 0x4 MSTORE PUSH1 0x24 PUSH1 0x0 REVERT INVALID LOG2 PUSH5 0x6970667358 0x22 SLT KECCAK256 0x2A CHAINID 0xAA 0xE1 0xBA GASLIMIT 0xC9 RETURNDATASIZE 0x4D 0x49 PUSH13 0x5904EB79BC8874EF5073D075A0 PUSH2 0x5C84 DUP11 ISZERO RETURN CREATE 0x2F PUSH5 0x736F6C6343 STOP ADDMOD AND STOP CALLER "},"methodIdentifiers":{"REWARD_PER_BLOCK()":"975532dc","claimFee(uint256)":"f667526a","claimRewards()":"372500ab","dappToken()":"5eb186f8","deposit(uint256)":"b6b55f25","distributeRewardsAll()":"db03e227","feeVar()":"8df4a3a5","lpToken()":"5fcbd285","maxReward()":"66a78e6c","minReward()":"ba16d600","name()":"06fdde03","owner()":"8da5cb5b","setReward(uint256)":"293be456","stakers(uint256)":"fd5e6dd1","totalStakingBalance()":"e766c835","user(address)":"81e7e20e","withdraw()":"3ccfd60b"}}}}}