{
  "_format": "hh-sol-artifact-1",
  "contractName": "TokenFarm",
  "sourceName": "contracts/TokenFarm.sol",
  "abi": [
    {
      "inputs": [
        {
          "internalType": "contract DAppToken",
          "name": "_dappToken",
          "type": "address"
        },
        {
          "internalType": "contract LPToken",
          "name": "_lpToken",
          "type": "address"
        },
        {
          "internalType": "uint256",
          "name": "_minReward",
          "type": "uint256"
        },
        {
          "internalType": "uint256",
          "name": "_maxReward",
          "type": "uint256"
        },
        {
          "internalType": "uint256",
          "name": "_feeAmount",
          "type": "uint256"
        }
      ],
      "stateMutability": "nonpayable",
      "type": "constructor"
    },
    {
      "anonymous": false,
      "inputs": [
        {
          "indexed": false,
          "internalType": "address",
          "name": "sender",
          "type": "address"
        },
        {
          "indexed": false,
          "internalType": "uint256",
          "name": "amount",
          "type": "uint256"
        }
      ],
      "name": "Deposit",
      "type": "event"
    },
    {
      "anonymous": false,
      "inputs": [
        {
          "indexed": false,
          "internalType": "uint256",
          "name": "rewardsAmount",
          "type": "uint256"
        },
        {
          "indexed": false,
          "internalType": "address",
          "name": "user",
          "type": "address"
        }
      ],
      "name": "RewardsClaimed",
      "type": "event"
    },
    {
      "anonymous": false,
      "inputs": [
        {
          "indexed": false,
          "internalType": "uint256",
          "name": "numOfUsersDistributed",
          "type": "uint256"
        },
        {
          "indexed": false,
          "internalType": "string",
          "name": "message",
          "type": "string"
        }
      ],
      "name": "RewardsDistributed",
      "type": "event"
    },
    {
      "anonymous": false,
      "inputs": [
        {
          "indexed": false,
          "internalType": "address",
          "name": "sender",
          "type": "address"
        },
        {
          "indexed": false,
          "internalType": "uint256",
          "name": "amount",
          "type": "uint256"
        }
      ],
      "name": "Withdraw",
      "type": "event"
    },
    {
      "inputs": [],
      "name": "REWARD_PER_BLOCK",
      "outputs": [
        {
          "internalType": "uint256",
          "name": "",
          "type": "uint256"
        }
      ],
      "stateMutability": "view",
      "type": "function"
    },
    {
      "inputs": [
        {
          "internalType": "uint256",
          "name": "_amount",
          "type": "uint256"
        }
      ],
      "name": "claimFee",
      "outputs": [],
      "stateMutability": "nonpayable",
      "type": "function"
    },
    {
      "inputs": [],
      "name": "claimRewards",
      "outputs": [],
      "stateMutability": "nonpayable",
      "type": "function"
    },
    {
      "inputs": [],
      "name": "dappToken",
      "outputs": [
        {
          "internalType": "contract DAppToken",
          "name": "",
          "type": "address"
        }
      ],
      "stateMutability": "view",
      "type": "function"
    },
    {
      "inputs": [
        {
          "internalType": "uint256",
          "name": "_amount",
          "type": "uint256"
        }
      ],
      "name": "deposit",
      "outputs": [],
      "stateMutability": "nonpayable",
      "type": "function"
    },
    {
      "inputs": [],
      "name": "distributeRewardsAll",
      "outputs": [],
      "stateMutability": "nonpayable",
      "type": "function"
    },
    {
      "inputs": [],
      "name": "feeVar",
      "outputs": [
        {
          "internalType": "uint256",
          "name": "",
          "type": "uint256"
        }
      ],
      "stateMutability": "view",
      "type": "function"
    },
    {
      "inputs": [],
      "name": "lpToken",
      "outputs": [
        {
          "internalType": "contract LPToken",
          "name": "",
          "type": "address"
        }
      ],
      "stateMutability": "view",
      "type": "function"
    },
    {
      "inputs": [],
      "name": "maxReward",
      "outputs": [
        {
          "internalType": "uint256",
          "name": "",
          "type": "uint256"
        }
      ],
      "stateMutability": "view",
      "type": "function"
    },
    {
      "inputs": [],
      "name": "minReward",
      "outputs": [
        {
          "internalType": "uint256",
          "name": "",
          "type": "uint256"
        }
      ],
      "stateMutability": "view",
      "type": "function"
    },
    {
      "inputs": [],
      "name": "name",
      "outputs": [
        {
          "internalType": "string",
          "name": "",
          "type": "string"
        }
      ],
      "stateMutability": "view",
      "type": "function"
    },
    {
      "inputs": [],
      "name": "owner",
      "outputs": [
        {
          "internalType": "address payable",
          "name": "",
          "type": "address"
        }
      ],
      "stateMutability": "view",
      "type": "function"
    },
    {
      "inputs": [
        {
          "internalType": "uint256",
          "name": "newReward",
          "type": "uint256"
        }
      ],
      "name": "setReward",
      "outputs": [],
      "stateMutability": "nonpayable",
      "type": "function"
    },
    {
      "inputs": [
        {
          "internalType": "uint256",
          "name": "",
          "type": "uint256"
        }
      ],
      "name": "stakers",
      "outputs": [
        {
          "internalType": "address",
          "name": "",
          "type": "address"
        }
      ],
      "stateMutability": "view",
      "type": "function"
    },
    {
      "inputs": [],
      "name": "totalStakingBalance",
      "outputs": [
        {
          "internalType": "uint256",
          "name": "",
          "type": "uint256"
        }
      ],
      "stateMutability": "view",
      "type": "function"
    },
    {
      "inputs": [
        {
          "internalType": "address",
          "name": "",
          "type": "address"
        }
      ],
      "name": "user",
      "outputs": [
        {
          "internalType": "uint256",
          "name": "stakingBalance",
          "type": "uint256"
        },
        {
          "internalType": "uint256",
          "name": "checkpoints",
          "type": "uint256"
        },
        {
          "internalType": "uint256",
          "name": "pendingRewards",
          "type": "uint256"
        },
        {
          "internalType": "bool",
          "name": "hasStaked",
          "type": "bool"
        },
        {
          "internalType": "bool",
          "name": "isStaking",
          "type": "bool"
        }
      ],
      "stateMutability": "view",
      "type": "function"
    },
    {
      "inputs": [],
      "name": "withdraw",
      "outputs": [],
      "stateMutability": "nonpayable",
      "type": "function"
    }
  ],
  "bytecode": "0x60c0604052601760809081527f50726f706f7274696f6e616c20546f6b656e204661726d00000000000000000060a0526000906200003e90826200025a565b503480156200004c57600080fd5b50604051620012a8380380620012a88339810160408190526200006f916200033f565b600280546001600160a01b038088166001600160a01b031992831617909255600380549287169282169290921790915560018054909116331790556127108110620001145760405162461bcd60e51b815260206004820152602a60248201527f46656520616d6f756e742063616e6e6f742062652067726561746572207468616044820152696e20746865203130302560b01b60648201526084015b60405180910390fd5b6007819055818310620001805760405162461bcd60e51b815260206004820152602d60248201527f4d696e205265776172642063616e6e6f7420626520677265617465722074686160448201526c371026b0bc102932bbb0b9321760991b60648201526084016200010b565b60058390556006829055600262000198838562000397565b620001a49190620003bf565b60045550620003e29350505050565b634e487b7160e01b600052604160045260246000fd5b600181811c90821680620001de57607f821691505b602082108103620001ff57634e487b7160e01b600052602260045260246000fd5b50919050565b601f82111562000255576000816000526020600020601f850160051c81016020861015620002305750805b601f850160051c820191505b8181101562000251578281556001016200023c565b5050505b505050565b81516001600160401b03811115620002765762000276620001b3565b6200028e81620002878454620001c9565b8462000205565b602080601f831160018114620002c65760008415620002ad5750858301515b600019600386901b1c1916600185901b17855562000251565b600085815260208120601f198616915b82811015620002f757888601518255948401946001909101908401620002d6565b5085821015620003165787850151600019600388901b60f8161c191681555b5050505050600190811b01905550565b6001600160a01b03811681146200033c57600080fd5b50565b600080600080600060a086880312156200035857600080fd5b8551620003658162000326565b6020870151909550620003788162000326565b6040870151606088015160809098015196999198509695945092505050565b80820180821115620003b957634e487b7160e01b600052601160045260246000fd5b92915050565b600082620003dd57634e487b7160e01b600052601260045260246000fd5b500490565b610eb680620003f26000396000f3fe608060405234801561001057600080fd5b506004361061010b5760003560e01c80638da5cb5b116100a2578063ba16d60011610071578063ba16d6001461024d578063db03e22714610256578063e766c8351461025e578063f667526a14610267578063fd5e6dd11461027a57600080fd5b80638da5cb5b146102155780638df4a3a514610228578063975532dc14610231578063b6b55f251461023a57600080fd5b80635eb186f8116100de5780635eb186f8146101535780635fcbd2851461017e57806366a78e6c1461019157806381e7e20e146101a857600080fd5b806306fdde0314610110578063293be4561461012e578063372500ab146101435780633ccfd60b1461014b575b600080fd5b61011861028d565b6040516101259190610cc4565b60405180910390f35b61014161013c366004610d13565b61031b565b005b6101416103d8565b61014161054f565b600254610166906001600160a01b031681565b6040516001600160a01b039091168152602001610125565b600354610166906001600160a01b031681565b61019a60065481565b604051908152602001610125565b6101e96101b6366004610d2c565b600b6020526000908152604090208054600182015460028301546003909301549192909160ff8082169161010090041685565b60408051958652602086019490945292840191909152151560608301521515608082015260a001610125565b600154610166906001600160a01b031681565b61019a60075481565b61019a60045481565b610141610248366004610d13565b610740565b61019a60055481565b61014161094a565b61019a60095481565b610141610275366004610d13565b610a71565b610166610288366004610d13565b610b5f565b6000805461029a90610d5c565b80601f01602080910402602001604051908101604052809291908181526020018280546102c690610d5c565b80156103135780601f106102e857610100808354040283529160200191610313565b820191906000526020600020905b8154815290600101906020018083116102f657829003601f168201915b505050505081565b6001546001600160a01b0316331461034e5760405162461bcd60e51b815260040161034590610d96565b60405180910390fd5b6005548110158061036157506006548111155b6103d35760405162461bcd60e51b815260206004820152603d60248201527f536f7272792c20796f752063616e7420676f206265796f6e6420746865206d6960448201527f6e20616e64206d61782065737461626c69736865642076616c7565732e0000006064820152608401610345565b600455565b336000908152600b6020526040902060020154806104565760405162461bcd60e51b815260206004820152603560248201527f50656e64696e6720416d6f756e74206973207a65726f206f72206c657373657260448201527416103bb29031b0b73737ba1031b7b73a34b73ab29760591b6064820152608401610345565b336000908152600b602052604081206002018190556007546127109061047c9084610de3565b6104869190610e00565b905060006104948284610e22565b905081600860008282546104a89190610e35565b90915550506002546040516340c10f1960e01b8152336004820152602481018390526001600160a01b03909116906340c10f1990604401600060405180830381600087803b1580156104f957600080fd5b505af115801561050d573d6000803e3d6000fd5b5050604080518681523360208201527f3faf1b981f3f8f6d61498a40cd97becbe364c8da8a0f92c1cdec3051deef9f19935001905060405180910390a1505050565b336000908152600b602052604090206003015460ff6101009091041615156001146105bc5760405162461bcd60e51b815260206004820152601760248201527f5468652075736572206973206e6f74207374616b696e670000000000000000006044820152606401610345565b336000908152600b60205260409020548061063f5760405162461bcd60e51b815260206004820152603e60248201527f496d20736f7272792c207468652063757272656e74207374616b696e6720626160448201527f6c616e6365206f662074686973206164647265737320697320656d70747900006064820152608401610345565b61064833610b89565b336000908152600b602052604081208190556009805483929061066c908490610e22565b9091555050336000818152600b6020526040908190206003908101805461ff001916905554905163a9059cbb60e01b81526004810192909252602482018390526001600160a01b03169063a9059cbb906044016020604051808303816000875af11580156106de573d6000803e3d6000fd5b505050506040513d601f19601f820116820180604052508101906107029190610e48565b5060408051338152602081018390527f884edad9ce6fa2440d8a54cc123490eb96d2768479d49ff9c7366125a942436491015b60405180910390a150565b6000811161079b5760405162461bcd60e51b815260206004820152602260248201527f54686520616d6f756e742063616e6e6f74206265206c6573736572207468616e604482015261203160f01b6064820152608401610345565b6003546040516323b872dd60e01b8152336004820152306024820152604481018390526001600160a01b03909116906323b872dd906064016020604051808303816000875af11580156107f2573d6000803e3d6000fd5b505050506040513d601f19601f820116820180604052508101906108169190610e48565b50336000908152600b602052604081208054839290610836908490610e35565b92505081905550806009600082825461084f9190610e35565b9091555050336000908152600b602052604090206003015460ff166108cc57600a805460018181019092557fc65a7bb8d6351c1cf70c95a316cc6a92839c986682d98bc35f958f4883f9d2a80180546001600160a01b031916339081179091556000908152600b60205260409020600301805460ff191690911790555b336000908152600b6020526040902060038101805461ff0019166101001790556001015461090b57336000908152600b60205260409020436001909101555b61091433610b89565b60408051338152602081018390527fe1fffcc4923d04b559f4d29a8bfc6cda04eb5b0d3c460751c2402c5c5cc9109c9101610735565b6001546001600160a01b031633146109745760405162461bcd60e51b815260040161034590610d96565b60005b600a54811015610a0657600b6000600a838154811061099857610998610e6a565b60009182526020808320909101546001600160a01b0316835282019290925260400190206003015460ff61010090910416156109fe576109fe600a82815481106109e4576109e4610e6a565b6000918252602090912001546001600160a01b0316610b89565b600101610977565b50600a5460408051918252602082018190526019828201527f5375636365737366756c6c7920646973747269627574656421000000000000006060830152517fe3c442d494f7839238fa48d18694a40ec47029eb7cc107e2538430bb44c1222e9181900360800190a1565b6001546001600160a01b03163314610a9b5760405162461bcd60e51b815260040161034590610d96565b806008541015610b215760405162461bcd60e51b815260206004820152604560248201527f536f7272792c2074686520616d6f756e742063616e6e6f74206265206772656160448201527f746572207468616e2074686520746f74616c20666565206f6e2074686520737960648201526439ba32b69760d91b608482015260a401610345565b6001546040516001600160a01b039091169082156108fc029083906000818181858888f19350505050158015610b5b573d6000803e3d6000fd5b5050565b600a8181548110610b6f57600080fd5b6000918252602090912001546001600160a01b0316905081565b6001600160a01b0381166000908152600b60205260409020600101544381108015610bb657506000600954115b610c405760405162461bcd60e51b815260206004820152604f60248201527f536f7272792c206f722074686520626c6f636b206e756d6265727320646f657360448201527f6e74206d617463682c206f722074686520746f74616c207374616b696e67206260648201526e616c616e636520697320656d70747960881b608482015260a401610345565b6000610c4c8243610e22565b6009546001600160a01b0385166000908152600b602052604081205492935091610c769190610e00565b905060008183600454610c899190610de3565b610c939190610de3565b6001600160a01b039095166000908152600b6020526040902060028101959095555050436001909301929092555050565b60006020808352835180602085015260005b81811015610cf257858101830151858201604001528201610cd6565b506000604082860101526040601f19601f8301168501019250505092915050565b600060208284031215610d2557600080fd5b5035919050565b600060208284031215610d3e57600080fd5b81356001600160a01b0381168114610d5557600080fd5b9392505050565b600181811c90821680610d7057607f821691505b602082108103610d9057634e487b7160e01b600052602260045260246000fd5b50919050565b6020808252601b908201527f4f6e6c7920746865206f776e65722063616e20646f20746861742e0000000000604082015260600190565b634e487b7160e01b600052601160045260246000fd5b8082028115828204841417610dfa57610dfa610dcd565b92915050565b600082610e1d57634e487b7160e01b600052601260045260246000fd5b500490565b81810381811115610dfa57610dfa610dcd565b80820180821115610dfa57610dfa610dcd565b600060208284031215610e5a57600080fd5b81518015158114610d5557600080fd5b634e487b7160e01b600052603260045260246000fdfea2646970667358221220168ee157f5bca1b87b6d2df7ee3e7866043055550623a1cb74048af2aee6d24d64736f6c63430008160033",
  "linkReferences": {},
  "deployedLinkReferences": {}
}